{"contracts/FortuneSeeker.sol":{"FortuneSeeker":{"abi":[{"inputs":[{"internalType":"address","name":"_fortuneTeller","type":"address"},{"internalType":"uint256","name":"updateInterval","type":"uint256"}],"stateMutability":"nonpayable","type":"constructor"},{"anonymous":false,"inputs":[{"indexed":false,"internalType":"uint256","name":"balance","type":"uint256"}],"name":"InsufficientFunds","type":"event"},{"anonymous":false,"inputs":[{"indexed":false,"internalType":"uint256","name":"amount","type":"uint256"}],"name":"ReceivedFunding","type":"event"},{"inputs":[{"internalType":"bytes","name":"","type":"bytes"}],"name":"checkUpkeep","outputs":[{"internalType":"bool","name":"upkeepNeeded","type":"bool"},{"internalType":"bytes","name":"","type":"bytes"}],"stateMutability":"view","type":"function"},{"inputs":[],"name":"fortune","outputs":[{"internalType":"string","name":"","type":"string"}],"stateMutability":"view","type":"function"},{"inputs":[],"name":"fortuneTeller","outputs":[{"internalType":"address","name":"","type":"address"}],"stateMutability":"view","type":"function"},{"inputs":[{"internalType":"string","name":"_fortune","type":"string"}],"name":"fulfillFortune","outputs":[],"stateMutability":"nonpayable","type":"function"},{"inputs":[],"name":"getContractBalance","outputs":[{"internalType":"uint256","name":"","type":"uint256"}],"stateMutability":"view","type":"function"},{"inputs":[],"name":"interval","outputs":[{"internalType":"uint256","name":"","type":"uint256"}],"stateMutability":"view","type":"function"},{"inputs":[],"name":"lastTimeStamp","outputs":[{"internalType":"uint256","name":"","type":"uint256"}],"stateMutability":"view","type":"function"},{"inputs":[],"name":"owner","outputs":[{"internalType":"address","name":"","type":"address"}],"stateMutability":"view","type":"function"},{"inputs":[{"internalType":"bytes","name":"","type":"bytes"}],"name":"performUpkeep","outputs":[],"stateMutability":"nonpayable","type":"function"},{"inputs":[],"name":"seekFortune","outputs":[],"stateMutability":"nonpayable","type":"function"},{"inputs":[],"name":"withdrawBalance","outputs":[],"stateMutability":"payable","type":"function"},{"stateMutability":"payable","type":"receive"}],"evm":{"bytecode":{"linkReferences":{},"object":"60a06040523480156200001157600080fd5b50604051620010d8380380620010d88339818101604052810190620000379190620000fd565b81600160006101000a81548173ffffffffffffffffffffffffffffffffffffffff021916908373ffffffffffffffffffffffffffffffffffffffff160217905550426003819055508060808181525050336000806101000a81548173ffffffffffffffffffffffffffffffffffffffff021916908373ffffffffffffffffffffffffffffffffffffffff1602179055505050620001bb565b600081519050620000e08162000187565b92915050565b600081519050620000f781620001a1565b92915050565b6000806040838503121562000117576200011662000182565b5b60006200012785828601620000cf565b92505060206200013a85828601620000e6565b9150509250929050565b6000620001518262000158565b9050919050565b600073ffffffffffffffffffffffffffffffffffffffff82169050919050565b6000819050919050565b600080fd5b620001928162000144565b81146200019e57600080fd5b50565b620001ac8162000178565b8114620001b857600080fd5b50565b608051610ef3620001e56000396000818161032e0152818161062b01526106c80152610ef36000f3fe6080604052600436106100a05760003560e01c80636e04ff0d116100645780636e04ff0d146101835780636f9fb98a146101c1578063728c9c06146101ec5780638da5cb5b14610215578063947a36fb14610240578063e79150ca1461026b576100de565b8063177de89c146100e35780633f3b3b271461010e5780634585e33b146101395780635fd8c710146101625780636b6eb7531461016c576100de565b366100de577fcdc77e761b1d4cd82eeada7665c48ca477ac1c6bc761f8d5a191a6a37f8869db346040516100d49190610b5f565b60405180910390a1005b600080fd5b3480156100ef57600080fd5b506100f8610296565b6040516101059190610abd565b60405180910390f35b34801561011a57600080fd5b50610123610324565b6040516101309190610b5f565b60405180910390f35b34801561014557600080fd5b50610160600480360381019061015b9190610879565b61032a565b005b61016a6103d2565b005b34801561017857600080fd5b5061018161050f565b005b34801561018f57600080fd5b506101aa60048036038101906101a59190610879565b610623565b6040516101b8929190610a8d565b60405180910390f35b3480156101cd57600080fd5b506101d6610680565b6040516101e39190610b5f565b60405180910390f35b3480156101f857600080fd5b50610213600480360381019061020e91906108c6565b610688565b005b34801561022157600080fd5b5061022a6106a2565b6040516102379190610a72565b60405180910390f35b34801561024c57600080fd5b506102556106c6565b6040516102629190610b5f565b60405180910390f35b34801561027757600080fd5b506102806106ea565b60405161028d9190610a72565b60405180910390f35b600280546102a390610cd1565b80601f01602080910402602001604051908101604052809291908181526020018280546102cf90610cd1565b801561031c5780601f106102f15761010080835404028352916020019161031c565b820191906000526020600020905b8154815290600101906020018083116102ff57829003601f168201915b505050505081565b60035481565b60007f00000000000000000000000000000000000000000000000000000000000000006003544261035b9190610c13565b1190506000670de0b6b3a76400004710159050600082801561037a5750815b9050806103bc576040517f08c379a00000000000000000000000000000000000000000000000000000000081526004016103b390610aff565b60405180910390fd5b426003819055506103cb61050f565b5050505050565b3373ffffffffffffffffffffffffffffffffffffffff1660008054906101000a900473ffffffffffffffffffffffffffffffffffffffff1673ffffffffffffffffffffffffffffffffffffffff1614610460576040517f08c379a000000000000000000000000000000000000000000000000000000000815260040161045790610adf565b60405180910390fd5b60003373ffffffffffffffffffffffffffffffffffffffff164760405161048690610a5d565b60006040518083038185875af1925050503d80600081146104c3576040519150601f19603f3d011682016040523d82523d6000602084013e6104c8565b606091505b505090508061050c576040517f08c379a000000000000000000000000000000000000000000000000000000000815260040161050390610b1f565b60405180910390fd5b50565b670de0b6b3a7640000471015610591577fcb78cce24fdc0644864ba6fa04f6212b7535b7b222d742f247c1c60c11b431224760405161054e9190610b5f565b60405180910390a16040517f08c379a000000000000000000000000000000000000000000000000000000000815260040161058890610b3f565b60405180910390fd5b6000600160009054906101000a900473ffffffffffffffffffffffffffffffffffffffff1690508073ffffffffffffffffffffffffffffffffffffffff16636b6eb75366038d7ea4c680006040518263ffffffff1660e01b81526004016000604051808303818588803b15801561060757600080fd5b505af115801561061b573d6000803e3d6000fd5b505050505050565b6000606060007f0000000000000000000000000000000000000000000000000000000000000000600354426106589190610c13565b1190506000670de0b6b3a764000047101590508180156106755750805b935050509250929050565b600047905090565b806002908051906020019061069e929190610710565b5050565b60008054906101000a900473ffffffffffffffffffffffffffffffffffffffff1681565b7f000000000000000000000000000000000000000000000000000000000000000081565b600160009054906101000a900473ffffffffffffffffffffffffffffffffffffffff1681565b82805461071c90610cd1565b90600052602060002090601f01602090048101928261073e5760008555610785565b82601f1061075757805160ff1916838001178555610785565b82800160010185558215610785579182015b82811115610784578251825591602001919060010190610769565b5b5090506107929190610796565b5090565b5b808211156107af576000816000905550600101610797565b5090565b60006107c66107c184610b9f565b610b7a565b9050828152602081018484840111156107e2576107e1610dd0565b5b6107ed848285610c8f565b509392505050565b60008083601f84011261080b5761080a610dc6565b5b8235905067ffffffffffffffff81111561082857610827610dc1565b5b60208301915083600182028301111561084457610843610dcb565b5b9250929050565b600082601f8301126108605761085f610dc6565b5b81356108708482602086016107b3565b91505092915050565b600080602083850312156108905761088f610dda565b5b600083013567ffffffffffffffff8111156108ae576108ad610dd5565b5b6108ba858286016107f5565b92509250509250929050565b6000602082840312156108dc576108db610dda565b5b600082013567ffffffffffffffff8111156108fa576108f9610dd5565b5b6109068482850161084b565b91505092915050565b61091881610c47565b82525050565b61092781610c59565b82525050565b600061093882610bd0565b6109428185610be6565b9350610952818560208601610c9e565b61095b81610ddf565b840191505092915050565b600061097182610bdb565b61097b8185610c02565b935061098b818560208601610c9e565b61099481610ddf565b840191505092915050565b60006109ac601083610c02565b91506109b782610df0565b602082019050919050565b60006109cf601983610c02565b91506109da82610e19565b602082019050919050565b60006109f2602083610c02565b91506109fd82610e42565b602082019050919050565b6000610a15602883610c02565b9150610a2082610e6b565b604082019050919050565b6000610a38600083610bf7565b9150610a4382610eba565b600082019050919050565b610a5781610c85565b82525050565b6000610a6882610a2b565b9150819050919050565b6000602082019050610a87600083018461090f565b92915050565b6000604082019050610aa2600083018561091e565b8181036020830152610ab4818461092d565b90509392505050565b60006020820190508181036000830152610ad78184610966565b905092915050565b60006020820190508181036000830152610af88161099f565b9050919050565b60006020820190508181036000830152610b18816109c2565b9050919050565b60006020820190508181036000830152610b38816109e5565b9050919050565b60006020820190508181036000830152610b5881610a08565b9050919050565b6000602082019050610b746000830184610a4e565b92915050565b6000610b84610b95565b9050610b908282610d03565b919050565b6000604051905090565b600067ffffffffffffffff821115610bba57610bb9610d92565b5b610bc382610ddf565b9050602081019050919050565b600081519050919050565b600081519050919050565b600082825260208201905092915050565b600081905092915050565b600082825260208201905092915050565b6000610c1e82610c85565b9150610c2983610c85565b925082821015610c3c57610c3b610d34565b5b828203905092915050565b6000610c5282610c65565b9050919050565b60008115159050919050565b600073ffffffffffffffffffffffffffffffffffffffff82169050919050565b6000819050919050565b82818337600083830152505050565b60005b83811015610cbc578082015181840152602081019050610ca1565b83811115610ccb576000848401525b50505050565b60006002820490506001821680610ce957607f821691505b60208210811415610cfd57610cfc610d63565b5b50919050565b610d0c82610ddf565b810181811067ffffffffffffffff82111715610d2b57610d2a610d92565b5b80604052505050565b7f4e487b7100000000000000000000000000000000000000000000000000000000600052601160045260246000fd5b7f4e487b7100000000000000000000000000000000000000000000000000000000600052602260045260246000fd5b7f4e487b7100000000000000000000000000000000000000000000000000000000600052604160045260246000fd5b600080fd5b600080fd5b600080fd5b600080fd5b600080fd5b600080fd5b6000601f19601f8301169050919050565b7f43616c6c6572206e6f74206f776e657200000000000000000000000000000000600082015250565b7f55706b65657020636f6e646974696f6e73206e6f74206d657400000000000000600082015250565b7f4661696c656420746f2073656e6420457468657220696e207769746864726177600082015250565b7f4e6f7420656e6f7567682062616c616e636520746f2063616c6c20466f72747560008201527f6e6554656c6c6572000000000000000000000000000000000000000000000000602082015250565b5056fea2646970667358221220483762e78c4515e6029a79ee5b3a74f6864a2d50bb4cdeae32b4126876a3ed0e64736f6c63430008070033","opcodes":"PUSH1 0xA0 PUSH1 0x40 MSTORE CALLVALUE DUP1 ISZERO PUSH3 0x11 JUMPI PUSH1 0x0 DUP1 REVERT JUMPDEST POP PUSH1 0x40 MLOAD PUSH3 0x10D8 CODESIZE SUB DUP1 PUSH3 0x10D8 DUP4 CODECOPY DUP2 DUP2 ADD PUSH1 0x40 MSTORE DUP2 ADD SWAP1 PUSH3 0x37 SWAP2 SWAP1 PUSH3 0xFD JUMP JUMPDEST DUP2 PUSH1 0x1 PUSH1 0x0 PUSH2 0x100 EXP DUP2 SLOAD DUP2 PUSH20 0xFFFFFFFFFFFFFFFFFFFFFFFFFFFFFFFFFFFFFFFF MUL NOT AND SWAP1 DUP4 PUSH20 0xFFFFFFFFFFFFFFFFFFFFFFFFFFFFFFFFFFFFFFFF AND MUL OR SWAP1 SSTORE POP TIMESTAMP PUSH1 0x3 DUP2 SWAP1 SSTORE POP DUP1 PUSH1 0x80 DUP2 DUP2 MSTORE POP POP CALLER PUSH1 0x0 DUP1 PUSH2 0x100 EXP DUP2 SLOAD DUP2 PUSH20 0xFFFFFFFFFFFFFFFFFFFFFFFFFFFFFFFFFFFFFFFF MUL NOT AND SWAP1 DUP4 PUSH20 0xFFFFFFFFFFFFFFFFFFFFFFFFFFFFFFFFFFFFFFFF AND MUL OR SWAP1 SSTORE POP POP POP PUSH3 0x1BB JUMP JUMPDEST PUSH1 0x0 DUP2 MLOAD SWAP1 POP PUSH3 0xE0 DUP2 PUSH3 0x187 JUMP JUMPDEST SWAP3 SWAP2 POP POP JUMP JUMPDEST PUSH1 0x0 DUP2 MLOAD SWAP1 POP PUSH3 0xF7 DUP2 PUSH3 0x1A1 JUMP JUMPDEST SWAP3 SWAP2 POP POP JUMP JUMPDEST PUSH1 0x0 DUP1 PUSH1 0x40 DUP4 DUP6 SUB SLT ISZERO PUSH3 0x117 JUMPI PUSH3 0x116 PUSH3 0x182 JUMP JUMPDEST JUMPDEST PUSH1 0x0 PUSH3 0x127 DUP6 DUP3 DUP7 ADD PUSH3 0xCF JUMP JUMPDEST SWAP3 POP POP PUSH1 0x20 PUSH3 0x13A DUP6 DUP3 DUP7 ADD PUSH3 0xE6 JUMP JUMPDEST SWAP2 POP POP SWAP3 POP SWAP3 SWAP1 POP JUMP JUMPDEST PUSH1 0x0 PUSH3 0x151 DUP3 PUSH3 0x158 JUMP JUMPDEST SWAP1 POP SWAP2 SWAP1 POP JUMP JUMPDEST PUSH1 0x0 PUSH20 0xFFFFFFFFFFFFFFFFFFFFFFFFFFFFFFFFFFFFFFFF DUP3 AND SWAP1 POP SWAP2 SWAP1 POP JUMP JUMPDEST PUSH1 0x0 DUP2 SWAP1 POP SWAP2 SWAP1 POP JUMP JUMPDEST PUSH1 0x0 DUP1 REVERT JUMPDEST PUSH3 0x192 DUP2 PUSH3 0x144 JUMP JUMPDEST DUP2 EQ PUSH3 0x19E JUMPI PUSH1 0x0 DUP1 REVERT JUMPDEST POP JUMP JUMPDEST PUSH3 0x1AC DUP2 PUSH3 0x178 JUMP JUMPDEST DUP2 EQ PUSH3 0x1B8 JUMPI PUSH1 0x0 DUP1 REVERT JUMPDEST POP JUMP JUMPDEST PUSH1 0x80 MLOAD PUSH2 0xEF3 PUSH3 0x1E5 PUSH1 0x0 CODECOPY PUSH1 0x0 DUP2 DUP2 PUSH2 0x32E ADD MSTORE DUP2 DUP2 PUSH2 0x62B ADD MSTORE PUSH2 0x6C8 ADD MSTORE PUSH2 0xEF3 PUSH1 0x0 RETURN INVALID PUSH1 0x80 PUSH1 0x40 MSTORE PUSH1 0x4 CALLDATASIZE LT PUSH2 0xA0 JUMPI PUSH1 0x0 CALLDATALOAD PUSH1 0xE0 SHR DUP1 PUSH4 0x6E04FF0D GT PUSH2 0x64 JUMPI DUP1 PUSH4 0x6E04FF0D EQ PUSH2 0x183 JUMPI DUP1 PUSH4 0x6F9FB98A EQ PUSH2 0x1C1 JUMPI DUP1 PUSH4 0x728C9C06 EQ PUSH2 0x1EC JUMPI DUP1 PUSH4 0x8DA5CB5B EQ PUSH2 0x215 JUMPI DUP1 PUSH4 0x947A36FB EQ PUSH2 0x240 JUMPI DUP1 PUSH4 0xE79150CA EQ PUSH2 0x26B JUMPI PUSH2 0xDE JUMP JUMPDEST DUP1 PUSH4 0x177DE89C EQ PUSH2 0xE3 JUMPI DUP1 PUSH4 0x3F3B3B27 EQ PUSH2 0x10E JUMPI DUP1 PUSH4 0x4585E33B EQ PUSH2 0x139 JUMPI DUP1 PUSH4 0x5FD8C710 EQ PUSH2 0x162 JUMPI DUP1 PUSH4 0x6B6EB753 EQ PUSH2 0x16C JUMPI PUSH2 0xDE JUMP JUMPDEST CALLDATASIZE PUSH2 0xDE JUMPI PUSH32 0xCDC77E761B1D4CD82EEADA7665C48CA477AC1C6BC761F8D5A191A6A37F8869DB CALLVALUE PUSH1 0x40 MLOAD PUSH2 0xD4 SWAP2 SWAP1 PUSH2 0xB5F JUMP JUMPDEST PUSH1 0x40 MLOAD DUP1 SWAP2 SUB SWAP1 LOG1 STOP JUMPDEST PUSH1 0x0 DUP1 REVERT JUMPDEST CALLVALUE DUP1 ISZERO PUSH2 0xEF JUMPI PUSH1 0x0 DUP1 REVERT JUMPDEST POP PUSH2 0xF8 PUSH2 0x296 JUMP JUMPDEST PUSH1 0x40 MLOAD PUSH2 0x105 SWAP2 SWAP1 PUSH2 0xABD JUMP JUMPDEST PUSH1 0x40 MLOAD DUP1 SWAP2 SUB SWAP1 RETURN JUMPDEST CALLVALUE DUP1 ISZERO PUSH2 0x11A JUMPI PUSH1 0x0 DUP1 REVERT JUMPDEST POP PUSH2 0x123 PUSH2 0x324 JUMP JUMPDEST PUSH1 0x40 MLOAD PUSH2 0x130 SWAP2 SWAP1 PUSH2 0xB5F JUMP JUMPDEST PUSH1 0x40 MLOAD DUP1 SWAP2 SUB SWAP1 RETURN JUMPDEST CALLVALUE DUP1 ISZERO PUSH2 0x145 JUMPI PUSH1 0x0 DUP1 REVERT JUMPDEST POP PUSH2 0x160 PUSH1 0x4 DUP1 CALLDATASIZE SUB DUP2 ADD SWAP1 PUSH2 0x15B SWAP2 SWAP1 PUSH2 0x879 JUMP JUMPDEST PUSH2 0x32A JUMP JUMPDEST STOP JUMPDEST PUSH2 0x16A PUSH2 0x3D2 JUMP JUMPDEST STOP JUMPDEST CALLVALUE DUP1 ISZERO PUSH2 0x178 JUMPI PUSH1 0x0 DUP1 REVERT JUMPDEST POP PUSH2 0x181 PUSH2 0x50F JUMP JUMPDEST STOP JUMPDEST CALLVALUE DUP1 ISZERO PUSH2 0x18F JUMPI PUSH1 0x0 DUP1 REVERT JUMPDEST POP PUSH2 0x1AA PUSH1 0x4 DUP1 CALLDATASIZE SUB DUP2 ADD SWAP1 PUSH2 0x1A5 SWAP2 SWAP1 PUSH2 0x879 JUMP JUMPDEST PUSH2 0x623 JUMP JUMPDEST PUSH1 0x40 MLOAD PUSH2 0x1B8 SWAP3 SWAP2 SWAP1 PUSH2 0xA8D JUMP JUMPDEST PUSH1 0x40 MLOAD DUP1 SWAP2 SUB SWAP1 RETURN JUMPDEST CALLVALUE DUP1 ISZERO PUSH2 0x1CD JUMPI PUSH1 0x0 DUP1 REVERT JUMPDEST POP PUSH2 0x1D6 PUSH2 0x680 JUMP JUMPDEST PUSH1 0x40 MLOAD PUSH2 0x1E3 SWAP2 SWAP1 PUSH2 0xB5F JUMP JUMPDEST PUSH1 0x40 MLOAD DUP1 SWAP2 SUB SWAP1 RETURN JUMPDEST CALLVALUE DUP1 ISZERO PUSH2 0x1F8 JUMPI PUSH1 0x0 DUP1 REVERT JUMPDEST POP PUSH2 0x213 PUSH1 0x4 DUP1 CALLDATASIZE SUB DUP2 ADD SWAP1 PUSH2 0x20E SWAP2 SWAP1 PUSH2 0x8C6 JUMP JUMPDEST PUSH2 0x688 JUMP JUMPDEST STOP JUMPDEST CALLVALUE DUP1 ISZERO PUSH2 0x221 JUMPI PUSH1 0x0 DUP1 REVERT JUMPDEST POP PUSH2 0x22A PUSH2 0x6A2 JUMP JUMPDEST PUSH1 0x40 MLOAD PUSH2 0x237 SWAP2 SWAP1 PUSH2 0xA72 JUMP JUMPDEST PUSH1 0x40 MLOAD DUP1 SWAP2 SUB SWAP1 RETURN JUMPDEST CALLVALUE DUP1 ISZERO PUSH2 0x24C JUMPI PUSH1 0x0 DUP1 REVERT JUMPDEST POP PUSH2 0x255 PUSH2 0x6C6 JUMP JUMPDEST PUSH1 0x40 MLOAD PUSH2 0x262 SWAP2 SWAP1 PUSH2 0xB5F JUMP JUMPDEST PUSH1 0x40 MLOAD DUP1 SWAP2 SUB SWAP1 RETURN JUMPDEST CALLVALUE DUP1 ISZERO PUSH2 0x277 JUMPI PUSH1 0x0 DUP1 REVERT JUMPDEST POP PUSH2 0x280 PUSH2 0x6EA JUMP JUMPDEST PUSH1 0x40 MLOAD PUSH2 0x28D SWAP2 SWAP1 PUSH2 0xA72 JUMP JUMPDEST PUSH1 0x40 MLOAD DUP1 SWAP2 SUB SWAP1 RETURN JUMPDEST PUSH1 0x2 DUP1 SLOAD PUSH2 0x2A3 SWAP1 PUSH2 0xCD1 JUMP JUMPDEST DUP1 PUSH1 0x1F ADD PUSH1 0x20 DUP1 SWAP2 DIV MUL PUSH1 0x20 ADD PUSH1 0x40 MLOAD SWAP1 DUP2 ADD PUSH1 0x40 MSTORE DUP1 SWAP3 SWAP2 SWAP1 DUP2 DUP2 MSTORE PUSH1 0x20 ADD DUP3 DUP1 SLOAD PUSH2 0x2CF SWAP1 PUSH2 0xCD1 JUMP JUMPDEST DUP1 ISZERO PUSH2 0x31C JUMPI DUP1 PUSH1 0x1F LT PUSH2 0x2F1 JUMPI PUSH2 0x100 DUP1 DUP4 SLOAD DIV MUL DUP4 MSTORE SWAP2 PUSH1 0x20 ADD SWAP2 PUSH2 0x31C JUMP JUMPDEST DUP3 ADD SWAP2 SWAP1 PUSH1 0x0 MSTORE PUSH1 0x20 PUSH1 0x0 KECCAK256 SWAP1 JUMPDEST DUP2 SLOAD DUP2 MSTORE SWAP1 PUSH1 0x1 ADD SWAP1 PUSH1 0x20 ADD DUP1 DUP4 GT PUSH2 0x2FF JUMPI DUP3 SWAP1 SUB PUSH1 0x1F AND DUP3 ADD SWAP2 JUMPDEST POP POP POP POP POP DUP2 JUMP JUMPDEST PUSH1 0x3 SLOAD DUP2 JUMP JUMPDEST PUSH1 0x0 PUSH32 0x0 PUSH1 0x3 SLOAD TIMESTAMP PUSH2 0x35B SWAP2 SWAP1 PUSH2 0xC13 JUMP JUMPDEST GT SWAP1 POP PUSH1 0x0 PUSH8 0xDE0B6B3A7640000 SELFBALANCE LT ISZERO SWAP1 POP PUSH1 0x0 DUP3 DUP1 ISZERO PUSH2 0x37A JUMPI POP DUP2 JUMPDEST SWAP1 POP DUP1 PUSH2 0x3BC JUMPI PUSH1 0x40 MLOAD PUSH32 0x8C379A000000000000000000000000000000000000000000000000000000000 DUP2 MSTORE PUSH1 0x4 ADD PUSH2 0x3B3 SWAP1 PUSH2 0xAFF JUMP JUMPDEST PUSH1 0x40 MLOAD DUP1 SWAP2 SUB SWAP1 REVERT JUMPDEST TIMESTAMP PUSH1 0x3 DUP2 SWAP1 SSTORE POP PUSH2 0x3CB PUSH2 0x50F JUMP JUMPDEST POP POP POP POP POP JUMP JUMPDEST CALLER PUSH20 0xFFFFFFFFFFFFFFFFFFFFFFFFFFFFFFFFFFFFFFFF AND PUSH1 0x0 DUP1 SLOAD SWAP1 PUSH2 0x100 EXP SWAP1 DIV PUSH20 0xFFFFFFFFFFFFFFFFFFFFFFFFFFFFFFFFFFFFFFFF AND PUSH20 0xFFFFFFFFFFFFFFFFFFFFFFFFFFFFFFFFFFFFFFFF AND EQ PUSH2 0x460 JUMPI PUSH1 0x40 MLOAD PUSH32 0x8C379A000000000000000000000000000000000000000000000000000000000 DUP2 MSTORE PUSH1 0x4 ADD PUSH2 0x457 SWAP1 PUSH2 0xADF JUMP JUMPDEST PUSH1 0x40 MLOAD DUP1 SWAP2 SUB SWAP1 REVERT JUMPDEST PUSH1 0x0 CALLER PUSH20 0xFFFFFFFFFFFFFFFFFFFFFFFFFFFFFFFFFFFFFFFF AND SELFBALANCE PUSH1 0x40 MLOAD PUSH2 0x486 SWAP1 PUSH2 0xA5D JUMP JUMPDEST PUSH1 0x0 PUSH1 0x40 MLOAD DUP1 DUP4 SUB DUP2 DUP6 DUP8 GAS CALL SWAP3 POP POP POP RETURNDATASIZE DUP1 PUSH1 0x0 DUP2 EQ PUSH2 0x4C3 JUMPI PUSH1 0x40 MLOAD SWAP2 POP PUSH1 0x1F NOT PUSH1 0x3F RETURNDATASIZE ADD AND DUP3 ADD PUSH1 0x40 MSTORE RETURNDATASIZE DUP3 MSTORE RETURNDATASIZE PUSH1 0x0 PUSH1 0x20 DUP5 ADD RETURNDATACOPY PUSH2 0x4C8 JUMP JUMPDEST PUSH1 0x60 SWAP2 POP JUMPDEST POP POP SWAP1 POP DUP1 PUSH2 0x50C JUMPI PUSH1 0x40 MLOAD PUSH32 0x8C379A000000000000000000000000000000000000000000000000000000000 DUP2 MSTORE PUSH1 0x4 ADD PUSH2 0x503 SWAP1 PUSH2 0xB1F JUMP JUMPDEST PUSH1 0x40 MLOAD DUP1 SWAP2 SUB SWAP1 REVERT JUMPDEST POP JUMP JUMPDEST PUSH8 0xDE0B6B3A7640000 SELFBALANCE LT ISZERO PUSH2 0x591 JUMPI PUSH32 0xCB78CCE24FDC0644864BA6FA04F6212B7535B7B222D742F247C1C60C11B43122 SELFBALANCE PUSH1 0x40 MLOAD PUSH2 0x54E SWAP2 SWAP1 PUSH2 0xB5F JUMP JUMPDEST PUSH1 0x40 MLOAD DUP1 SWAP2 SUB SWAP1 LOG1 PUSH1 0x40 MLOAD PUSH32 0x8C379A000000000000000000000000000000000000000000000000000000000 DUP2 MSTORE PUSH1 0x4 ADD PUSH2 0x588 SWAP1 PUSH2 0xB3F JUMP JUMPDEST PUSH1 0x40 MLOAD DUP1 SWAP2 SUB SWAP1 REVERT JUMPDEST PUSH1 0x0 PUSH1 0x1 PUSH1 0x0 SWAP1 SLOAD SWAP1 PUSH2 0x100 EXP SWAP1 DIV PUSH20 0xFFFFFFFFFFFFFFFFFFFFFFFFFFFFFFFFFFFFFFFF AND SWAP1 POP DUP1 PUSH20 0xFFFFFFFFFFFFFFFFFFFFFFFFFFFFFFFFFFFFFFFF AND PUSH4 0x6B6EB753 PUSH7 0x38D7EA4C68000 PUSH1 0x40 MLOAD DUP3 PUSH4 0xFFFFFFFF AND PUSH1 0xE0 SHL DUP2 MSTORE PUSH1 0x4 ADD PUSH1 0x0 PUSH1 0x40 MLOAD DUP1 DUP4 SUB DUP2 DUP6 DUP9 DUP1 EXTCODESIZE ISZERO DUP1 ISZERO PUSH2 0x607 JUMPI PUSH1 0x0 DUP1 REVERT JUMPDEST POP GAS CALL ISZERO DUP1 ISZERO PUSH2 0x61B JUMPI RETURNDATASIZE PUSH1 0x0 DUP1 RETURNDATACOPY RETURNDATASIZE PUSH1 0x0 REVERT JUMPDEST POP POP POP POP POP POP JUMP JUMPDEST PUSH1 0x0 PUSH1 0x60 PUSH1 0x0 PUSH32 0x0 PUSH1 0x3 SLOAD TIMESTAMP PUSH2 0x658 SWAP2 SWAP1 PUSH2 0xC13 JUMP JUMPDEST GT SWAP1 POP PUSH1 0x0 PUSH8 0xDE0B6B3A7640000 SELFBALANCE LT ISZERO SWAP1 POP DUP2 DUP1 ISZERO PUSH2 0x675 JUMPI POP DUP1 JUMPDEST SWAP4 POP POP POP SWAP3 POP SWAP3 SWAP1 POP JUMP JUMPDEST PUSH1 0x0 SELFBALANCE SWAP1 POP SWAP1 JUMP JUMPDEST DUP1 PUSH1 0x2 SWAP1 DUP1 MLOAD SWAP1 PUSH1 0x20 ADD SWAP1 PUSH2 0x69E SWAP3 SWAP2 SWAP1 PUSH2 0x710 JUMP JUMPDEST POP POP JUMP JUMPDEST PUSH1 0x0 DUP1 SLOAD SWAP1 PUSH2 0x100 EXP SWAP1 DIV PUSH20 0xFFFFFFFFFFFFFFFFFFFFFFFFFFFFFFFFFFFFFFFF AND DUP2 JUMP JUMPDEST PUSH32 0x0 DUP2 JUMP JUMPDEST PUSH1 0x1 PUSH1 0x0 SWAP1 SLOAD SWAP1 PUSH2 0x100 EXP SWAP1 DIV PUSH20 0xFFFFFFFFFFFFFFFFFFFFFFFFFFFFFFFFFFFFFFFF AND DUP2 JUMP JUMPDEST DUP3 DUP1 SLOAD PUSH2 0x71C SWAP1 PUSH2 0xCD1 JUMP JUMPDEST SWAP1 PUSH1 0x0 MSTORE PUSH1 0x20 PUSH1 0x0 KECCAK256 SWAP1 PUSH1 0x1F ADD PUSH1 0x20 SWAP1 DIV DUP2 ADD SWAP3 DUP3 PUSH2 0x73E JUMPI PUSH1 0x0 DUP6 SSTORE PUSH2 0x785 JUMP JUMPDEST DUP3 PUSH1 0x1F LT PUSH2 0x757 JUMPI DUP1 MLOAD PUSH1 0xFF NOT AND DUP4 DUP1 ADD OR DUP6 SSTORE PUSH2 0x785 JUMP JUMPDEST DUP3 DUP1 ADD PUSH1 0x1 ADD DUP6 SSTORE DUP3 ISZERO PUSH2 0x785 JUMPI SWAP2 DUP3 ADD JUMPDEST DUP3 DUP2 GT ISZERO PUSH2 0x784 JUMPI DUP3 MLOAD DUP3 SSTORE SWAP2 PUSH1 0x20 ADD SWAP2 SWAP1 PUSH1 0x1 ADD SWAP1 PUSH2 0x769 JUMP JUMPDEST JUMPDEST POP SWAP1 POP PUSH2 0x792 SWAP2 SWAP1 PUSH2 0x796 JUMP JUMPDEST POP SWAP1 JUMP JUMPDEST JUMPDEST DUP1 DUP3 GT ISZERO PUSH2 0x7AF JUMPI PUSH1 0x0 DUP2 PUSH1 0x0 SWAP1 SSTORE POP PUSH1 0x1 ADD PUSH2 0x797 JUMP JUMPDEST POP SWAP1 JUMP JUMPDEST PUSH1 0x0 PUSH2 0x7C6 PUSH2 0x7C1 DUP5 PUSH2 0xB9F JUMP JUMPDEST PUSH2 0xB7A JUMP JUMPDEST SWAP1 POP DUP3 DUP2 MSTORE PUSH1 0x20 DUP2 ADD DUP5 DUP5 DUP5 ADD GT ISZERO PUSH2 0x7E2 JUMPI PUSH2 0x7E1 PUSH2 0xDD0 JUMP JUMPDEST JUMPDEST PUSH2 0x7ED DUP5 DUP3 DUP6 PUSH2 0xC8F JUMP JUMPDEST POP SWAP4 SWAP3 POP POP POP JUMP JUMPDEST PUSH1 0x0 DUP1 DUP4 PUSH1 0x1F DUP5 ADD SLT PUSH2 0x80B JUMPI PUSH2 0x80A PUSH2 0xDC6 JUMP JUMPDEST JUMPDEST DUP3 CALLDATALOAD SWAP1 POP PUSH8 0xFFFFFFFFFFFFFFFF DUP2 GT ISZERO PUSH2 0x828 JUMPI PUSH2 0x827 PUSH2 0xDC1 JUMP JUMPDEST JUMPDEST PUSH1 0x20 DUP4 ADD SWAP2 POP DUP4 PUSH1 0x1 DUP3 MUL DUP4 ADD GT ISZERO PUSH2 0x844 JUMPI PUSH2 0x843 PUSH2 0xDCB JUMP JUMPDEST JUMPDEST SWAP3 POP SWAP3 SWAP1 POP JUMP JUMPDEST PUSH1 0x0 DUP3 PUSH1 0x1F DUP4 ADD SLT PUSH2 0x860 JUMPI PUSH2 0x85F PUSH2 0xDC6 JUMP JUMPDEST JUMPDEST DUP2 CALLDATALOAD PUSH2 0x870 DUP5 DUP3 PUSH1 0x20 DUP7 ADD PUSH2 0x7B3 JUMP JUMPDEST SWAP2 POP POP SWAP3 SWAP2 POP POP JUMP JUMPDEST PUSH1 0x0 DUP1 PUSH1 0x20 DUP4 DUP6 SUB SLT ISZERO PUSH2 0x890 JUMPI PUSH2 0x88F PUSH2 0xDDA JUMP JUMPDEST JUMPDEST PUSH1 0x0 DUP4 ADD CALLDATALOAD PUSH8 0xFFFFFFFFFFFFFFFF DUP2 GT ISZERO PUSH2 0x8AE JUMPI PUSH2 0x8AD PUSH2 0xDD5 JUMP JUMPDEST JUMPDEST PUSH2 0x8BA DUP6 DUP3 DUP7 ADD PUSH2 0x7F5 JUMP JUMPDEST SWAP3 POP SWAP3 POP POP SWAP3 POP SWAP3 SWAP1 POP JUMP JUMPDEST PUSH1 0x0 PUSH1 0x20 DUP3 DUP5 SUB SLT ISZERO PUSH2 0x8DC JUMPI PUSH2 0x8DB PUSH2 0xDDA JUMP JUMPDEST JUMPDEST PUSH1 0x0 DUP3 ADD CALLDATALOAD PUSH8 0xFFFFFFFFFFFFFFFF DUP2 GT ISZERO PUSH2 0x8FA JUMPI PUSH2 0x8F9 PUSH2 0xDD5 JUMP JUMPDEST JUMPDEST PUSH2 0x906 DUP5 DUP3 DUP6 ADD PUSH2 0x84B JUMP JUMPDEST SWAP2 POP POP SWAP3 SWAP2 POP POP JUMP JUMPDEST PUSH2 0x918 DUP2 PUSH2 0xC47 JUMP JUMPDEST DUP3 MSTORE POP POP JUMP JUMPDEST PUSH2 0x927 DUP2 PUSH2 0xC59 JUMP JUMPDEST DUP3 MSTORE POP POP JUMP JUMPDEST PUSH1 0x0 PUSH2 0x938 DUP3 PUSH2 0xBD0 JUMP JUMPDEST PUSH2 0x942 DUP2 DUP6 PUSH2 0xBE6 JUMP JUMPDEST SWAP4 POP PUSH2 0x952 DUP2 DUP6 PUSH1 0x20 DUP7 ADD PUSH2 0xC9E JUMP JUMPDEST PUSH2 0x95B DUP2 PUSH2 0xDDF JUMP JUMPDEST DUP5 ADD SWAP2 POP POP SWAP3 SWAP2 POP POP JUMP JUMPDEST PUSH1 0x0 PUSH2 0x971 DUP3 PUSH2 0xBDB JUMP JUMPDEST PUSH2 0x97B DUP2 DUP6 PUSH2 0xC02 JUMP JUMPDEST SWAP4 POP PUSH2 0x98B DUP2 DUP6 PUSH1 0x20 DUP7 ADD PUSH2 0xC9E JUMP JUMPDEST PUSH2 0x994 DUP2 PUSH2 0xDDF JUMP JUMPDEST DUP5 ADD SWAP2 POP POP SWAP3 SWAP2 POP POP JUMP JUMPDEST PUSH1 0x0 PUSH2 0x9AC PUSH1 0x10 DUP4 PUSH2 0xC02 JUMP JUMPDEST SWAP2 POP PUSH2 0x9B7 DUP3 PUSH2 0xDF0 JUMP JUMPDEST PUSH1 0x20 DUP3 ADD SWAP1 POP SWAP2 SWAP1 POP JUMP JUMPDEST PUSH1 0x0 PUSH2 0x9CF PUSH1 0x19 DUP4 PUSH2 0xC02 JUMP JUMPDEST SWAP2 POP PUSH2 0x9DA DUP3 PUSH2 0xE19 JUMP JUMPDEST PUSH1 0x20 DUP3 ADD SWAP1 POP SWAP2 SWAP1 POP JUMP JUMPDEST PUSH1 0x0 PUSH2 0x9F2 PUSH1 0x20 DUP4 PUSH2 0xC02 JUMP JUMPDEST SWAP2 POP PUSH2 0x9FD DUP3 PUSH2 0xE42 JUMP JUMPDEST PUSH1 0x20 DUP3 ADD SWAP1 POP SWAP2 SWAP1 POP JUMP JUMPDEST PUSH1 0x0 PUSH2 0xA15 PUSH1 0x28 DUP4 PUSH2 0xC02 JUMP JUMPDEST SWAP2 POP PUSH2 0xA20 DUP3 PUSH2 0xE6B JUMP JUMPDEST PUSH1 0x40 DUP3 ADD SWAP1 POP SWAP2 SWAP1 POP JUMP JUMPDEST PUSH1 0x0 PUSH2 0xA38 PUSH1 0x0 DUP4 PUSH2 0xBF7 JUMP JUMPDEST SWAP2 POP PUSH2 0xA43 DUP3 PUSH2 0xEBA JUMP JUMPDEST PUSH1 0x0 DUP3 ADD SWAP1 POP SWAP2 SWAP1 POP JUMP JUMPDEST PUSH2 0xA57 DUP2 PUSH2 0xC85 JUMP JUMPDEST DUP3 MSTORE POP POP JUMP JUMPDEST PUSH1 0x0 PUSH2 0xA68 DUP3 PUSH2 0xA2B JUMP JUMPDEST SWAP2 POP DUP2 SWAP1 POP SWAP2 SWAP1 POP JUMP JUMPDEST PUSH1 0x0 PUSH1 0x20 DUP3 ADD SWAP1 POP PUSH2 0xA87 PUSH1 0x0 DUP4 ADD DUP5 PUSH2 0x90F JUMP JUMPDEST SWAP3 SWAP2 POP POP JUMP JUMPDEST PUSH1 0x0 PUSH1 0x40 DUP3 ADD SWAP1 POP PUSH2 0xAA2 PUSH1 0x0 DUP4 ADD DUP6 PUSH2 0x91E JUMP JUMPDEST DUP2 DUP2 SUB PUSH1 0x20 DUP4 ADD MSTORE PUSH2 0xAB4 DUP2 DUP5 PUSH2 0x92D JUMP JUMPDEST SWAP1 POP SWAP4 SWAP3 POP POP POP JUMP JUMPDEST PUSH1 0x0 PUSH1 0x20 DUP3 ADD SWAP1 POP DUP2 DUP2 SUB PUSH1 0x0 DUP4 ADD MSTORE PUSH2 0xAD7 DUP2 DUP5 PUSH2 0x966 JUMP JUMPDEST SWAP1 POP SWAP3 SWAP2 POP POP JUMP JUMPDEST PUSH1 0x0 PUSH1 0x20 DUP3 ADD SWAP1 POP DUP2 DUP2 SUB PUSH1 0x0 DUP4 ADD MSTORE PUSH2 0xAF8 DUP2 PUSH2 0x99F JUMP JUMPDEST SWAP1 POP SWAP2 SWAP1 POP JUMP JUMPDEST PUSH1 0x0 PUSH1 0x20 DUP3 ADD SWAP1 POP DUP2 DUP2 SUB PUSH1 0x0 DUP4 ADD MSTORE PUSH2 0xB18 DUP2 PUSH2 0x9C2 JUMP JUMPDEST SWAP1 POP SWAP2 SWAP1 POP JUMP JUMPDEST PUSH1 0x0 PUSH1 0x20 DUP3 ADD SWAP1 POP DUP2 DUP2 SUB PUSH1 0x0 DUP4 ADD MSTORE PUSH2 0xB38 DUP2 PUSH2 0x9E5 JUMP JUMPDEST SWAP1 POP SWAP2 SWAP1 POP JUMP JUMPDEST PUSH1 0x0 PUSH1 0x20 DUP3 ADD SWAP1 POP DUP2 DUP2 SUB PUSH1 0x0 DUP4 ADD MSTORE PUSH2 0xB58 DUP2 PUSH2 0xA08 JUMP JUMPDEST SWAP1 POP SWAP2 SWAP1 POP JUMP JUMPDEST PUSH1 0x0 PUSH1 0x20 DUP3 ADD SWAP1 POP PUSH2 0xB74 PUSH1 0x0 DUP4 ADD DUP5 PUSH2 0xA4E JUMP JUMPDEST SWAP3 SWAP2 POP POP JUMP JUMPDEST PUSH1 0x0 PUSH2 0xB84 PUSH2 0xB95 JUMP JUMPDEST SWAP1 POP PUSH2 0xB90 DUP3 DUP3 PUSH2 0xD03 JUMP JUMPDEST SWAP2 SWAP1 POP JUMP JUMPDEST PUSH1 0x0 PUSH1 0x40 MLOAD SWAP1 POP SWAP1 JUMP JUMPDEST PUSH1 0x0 PUSH8 0xFFFFFFFFFFFFFFFF DUP3 GT ISZERO PUSH2 0xBBA JUMPI PUSH2 0xBB9 PUSH2 0xD92 JUMP JUMPDEST JUMPDEST PUSH2 0xBC3 DUP3 PUSH2 0xDDF JUMP JUMPDEST SWAP1 POP PUSH1 0x20 DUP2 ADD SWAP1 POP SWAP2 SWAP1 POP JUMP JUMPDEST PUSH1 0x0 DUP2 MLOAD SWAP1 POP SWAP2 SWAP1 POP JUMP JUMPDEST PUSH1 0x0 DUP2 MLOAD SWAP1 POP SWAP2 SWAP1 POP JUMP JUMPDEST PUSH1 0x0 DUP3 DUP3 MSTORE PUSH1 0x20 DUP3 ADD SWAP1 POP SWAP3 SWAP2 POP POP JUMP JUMPDEST PUSH1 0x0 DUP2 SWAP1 POP SWAP3 SWAP2 POP POP JUMP JUMPDEST PUSH1 0x0 DUP3 DUP3 MSTORE PUSH1 0x20 DUP3 ADD SWAP1 POP SWAP3 SWAP2 POP POP JUMP JUMPDEST PUSH1 0x0 PUSH2 0xC1E DUP3 PUSH2 0xC85 JUMP JUMPDEST SWAP2 POP PUSH2 0xC29 DUP4 PUSH2 0xC85 JUMP JUMPDEST SWAP3 POP DUP3 DUP3 LT ISZERO PUSH2 0xC3C JUMPI PUSH2 0xC3B PUSH2 0xD34 JUMP JUMPDEST JUMPDEST DUP3 DUP3 SUB SWAP1 POP SWAP3 SWAP2 POP POP JUMP JUMPDEST PUSH1 0x0 PUSH2 0xC52 DUP3 PUSH2 0xC65 JUMP JUMPDEST SWAP1 POP SWAP2 SWAP1 POP JUMP JUMPDEST PUSH1 0x0 DUP2 ISZERO ISZERO SWAP1 POP SWAP2 SWAP1 POP JUMP JUMPDEST PUSH1 0x0 PUSH20 0xFFFFFFFFFFFFFFFFFFFFFFFFFFFFFFFFFFFFFFFF DUP3 AND SWAP1 POP SWAP2 SWAP1 POP JUMP JUMPDEST PUSH1 0x0 DUP2 SWAP1 POP SWAP2 SWAP1 POP JUMP JUMPDEST DUP3 DUP2 DUP4 CALLDATACOPY PUSH1 0x0 DUP4 DUP4 ADD MSTORE POP POP POP JUMP JUMPDEST PUSH1 0x0 JUMPDEST DUP4 DUP2 LT ISZERO PUSH2 0xCBC JUMPI DUP1 DUP3 ADD MLOAD DUP2 DUP5 ADD MSTORE PUSH1 0x20 DUP2 ADD SWAP1 POP PUSH2 0xCA1 JUMP JUMPDEST DUP4 DUP2 GT ISZERO PUSH2 0xCCB JUMPI PUSH1 0x0 DUP5 DUP5 ADD MSTORE JUMPDEST POP POP POP POP JUMP JUMPDEST PUSH1 0x0 PUSH1 0x2 DUP3 DIV SWAP1 POP PUSH1 0x1 DUP3 AND DUP1 PUSH2 0xCE9 JUMPI PUSH1 0x7F DUP3 AND SWAP2 POP JUMPDEST PUSH1 0x20 DUP3 LT DUP2 EQ ISZERO PUSH2 0xCFD JUMPI PUSH2 0xCFC PUSH2 0xD63 JUMP JUMPDEST JUMPDEST POP SWAP2 SWAP1 POP JUMP JUMPDEST PUSH2 0xD0C DUP3 PUSH2 0xDDF JUMP JUMPDEST DUP2 ADD DUP2 DUP2 LT PUSH8 0xFFFFFFFFFFFFFFFF DUP3 GT OR ISZERO PUSH2 0xD2B JUMPI PUSH2 0xD2A PUSH2 0xD92 JUMP JUMPDEST JUMPDEST DUP1 PUSH1 0x40 MSTORE POP POP POP JUMP JUMPDEST PUSH32 0x4E487B7100000000000000000000000000000000000000000000000000000000 PUSH1 0x0 MSTORE PUSH1 0x11 PUSH1 0x4 MSTORE PUSH1 0x24 PUSH1 0x0 REVERT JUMPDEST PUSH32 0x4E487B7100000000000000000000000000000000000000000000000000000000 PUSH1 0x0 MSTORE PUSH1 0x22 PUSH1 0x4 MSTORE PUSH1 0x24 PUSH1 0x0 REVERT JUMPDEST PUSH32 0x4E487B7100000000000000000000000000000000000000000000000000000000 PUSH1 0x0 MSTORE PUSH1 0x41 PUSH1 0x4 MSTORE PUSH1 0x24 PUSH1 0x0 REVERT JUMPDEST PUSH1 0x0 DUP1 REVERT JUMPDEST PUSH1 0x0 DUP1 REVERT JUMPDEST PUSH1 0x0 DUP1 REVERT JUMPDEST PUSH1 0x0 DUP1 REVERT JUMPDEST PUSH1 0x0 DUP1 REVERT JUMPDEST PUSH1 0x0 DUP1 REVERT JUMPDEST PUSH1 0x0 PUSH1 0x1F NOT PUSH1 0x1F DUP4 ADD AND SWAP1 POP SWAP2 SWAP1 POP JUMP JUMPDEST PUSH32 0x43616C6C6572206E6F74206F776E657200000000000000000000000000000000 PUSH1 0x0 DUP3 ADD MSTORE POP JUMP JUMPDEST PUSH32 0x55706B65657020636F6E646974696F6E73206E6F74206D657400000000000000 PUSH1 0x0 DUP3 ADD MSTORE POP JUMP JUMPDEST PUSH32 0x4661696C656420746F2073656E6420457468657220696E207769746864726177 PUSH1 0x0 DUP3 ADD MSTORE POP JUMP JUMPDEST PUSH32 0x4E6F7420656E6F7567682062616C616E636520746F2063616C6C20466F727475 PUSH1 0x0 DUP3 ADD MSTORE PUSH32 0x6E6554656C6C6572000000000000000000000000000000000000000000000000 PUSH1 0x20 DUP3 ADD MSTORE POP JUMP JUMPDEST POP JUMP INVALID LOG2 PUSH5 0x6970667358 0x22 SLT KECCAK256 BASEFEE CALLDATACOPY PUSH3 0xE78C45 ISZERO 0xE6 MUL SWAP11 PUSH26 0xEE5B3A74F6864A2D50BB4CDEAE32B4126876A3ED0E64736F6C63 NUMBER STOP ADDMOD SMOD STOP CALLER "},"methodIdentifiers":{"checkUpkeep(bytes)":"6e04ff0d","fortune()":"177de89c","fortuneTeller()":"e79150ca","fulfillFortune(string)":"728c9c06","getContractBalance()":"6f9fb98a","interval()":"947a36fb","lastTimeStamp()":"3f3b3b27","owner()":"8da5cb5b","performUpkeep(bytes)":"4585e33b","seekFortune()":"6b6eb753","withdrawBalance()":"5fd8c710"}}}}}