{
  "_format": "hh-sol-artifact-1",
  "contractName": "FortuneTeller",
  "sourceName": "contracts/FortuneTeller.sol",
  "abi": [
    {
      "inputs": [
        {
          "internalType": "uint64",
          "name": "subscriptionId",
          "type": "uint64"
        },
        {
          "internalType": "address",
          "name": "VRFCoordinator",
          "type": "address"
        }
      ],
      "stateMutability": "nonpayable",
      "type": "constructor"
    },
    {
      "inputs": [
        {
          "internalType": "address",
          "name": "have",
          "type": "address"
        },
        {
          "internalType": "address",
          "name": "want",
          "type": "address"
        }
      ],
      "name": "OnlyCoordinatorCanFulfill",
      "type": "error"
    },
    {
      "anonymous": false,
      "inputs": [
        {
          "indexed": true,
          "internalType": "address",
          "name": "from",
          "type": "address"
        },
        {
          "indexed": true,
          "internalType": "address",
          "name": "to",
          "type": "address"
        }
      ],
      "name": "OwnershipTransferRequested",
      "type": "event"
    },
    {
      "anonymous": false,
      "inputs": [
        {
          "indexed": true,
          "internalType": "address",
          "name": "from",
          "type": "address"
        },
        {
          "indexed": true,
          "internalType": "address",
          "name": "to",
          "type": "address"
        }
      ],
      "name": "OwnershipTransferred",
      "type": "event"
    },
    {
      "anonymous": false,
      "inputs": [
        {
          "indexed": false,
          "internalType": "uint256",
          "name": "requestId",
          "type": "uint256"
        },
        {
          "indexed": false,
          "internalType": "uint256[]",
          "name": "randomWords",
          "type": "uint256[]"
        }
      ],
      "name": "RequestFulfilled",
      "type": "event"
    },
    {
      "anonymous": false,
      "inputs": [
        {
          "indexed": false,
          "internalType": "uint256",
          "name": "requestId",
          "type": "uint256"
        },
        {
          "indexed": false,
          "internalType": "uint32",
          "name": "numWords",
          "type": "uint32"
        }
      ],
      "name": "RequestSent",
      "type": "event"
    },
    {
      "inputs": [],
      "name": "acceptOwnership",
      "outputs": [],
      "stateMutability": "nonpayable",
      "type": "function"
    },
    {
      "inputs": [],
      "name": "getContractBalance",
      "outputs": [
        {
          "internalType": "uint256",
          "name": "",
          "type": "uint256"
        }
      ],
      "stateMutability": "view",
      "type": "function"
    },
    {
      "inputs": [],
      "name": "getFortune",
      "outputs": [
        {
          "internalType": "string",
          "name": "",
          "type": "string"
        }
      ],
      "stateMutability": "nonpayable",
      "type": "function"
    },
    {
      "inputs": [
        {
          "internalType": "uint256",
          "name": "_requestId",
          "type": "uint256"
        }
      ],
      "name": "getRequestStatus",
      "outputs": [
        {
          "internalType": "bool",
          "name": "fulfilled",
          "type": "bool"
        },
        {
          "internalType": "uint256[]",
          "name": "randomWords",
          "type": "uint256[]"
        }
      ],
      "stateMutability": "view",
      "type": "function"
    },
    {
      "inputs": [],
      "name": "lastRequestId",
      "outputs": [
        {
          "internalType": "uint256",
          "name": "",
          "type": "uint256"
        }
      ],
      "stateMutability": "view",
      "type": "function"
    },
    {
      "inputs": [],
      "name": "lastReturnedFortune",
      "outputs": [
        {
          "internalType": "string",
          "name": "",
          "type": "string"
        }
      ],
      "stateMutability": "view",
      "type": "function"
    },
    {
      "inputs": [],
      "name": "owner",
      "outputs": [
        {
          "internalType": "address",
          "name": "",
          "type": "address"
        }
      ],
      "stateMutability": "view",
      "type": "function"
    },
    {
      "inputs": [
        {
          "internalType": "uint256",
          "name": "requestId",
          "type": "uint256"
        },
        {
          "internalType": "uint256[]",
          "name": "randomWords",
          "type": "uint256[]"
        }
      ],
      "name": "rawFulfillRandomWords",
      "outputs": [],
      "stateMutability": "nonpayable",
      "type": "function"
    },
    {
      "inputs": [
        {
          "internalType": "uint256",
          "name": "",
          "type": "uint256"
        }
      ],
      "name": "requestIds",
      "outputs": [
        {
          "internalType": "uint256",
          "name": "",
          "type": "uint256"
        }
      ],
      "stateMutability": "view",
      "type": "function"
    },
    {
      "inputs": [],
      "name": "requestRandomWords",
      "outputs": [
        {
          "internalType": "uint256",
          "name": "requestId",
          "type": "uint256"
        }
      ],
      "stateMutability": "nonpayable",
      "type": "function"
    },
    {
      "inputs": [
        {
          "internalType": "uint256",
          "name": "",
          "type": "uint256"
        }
      ],
      "name": "s_requests",
      "outputs": [
        {
          "internalType": "bool",
          "name": "fulfilled",
          "type": "bool"
        },
        {
          "internalType": "bool",
          "name": "exists",
          "type": "bool"
        }
      ],
      "stateMutability": "view",
      "type": "function"
    },
    {
      "inputs": [],
      "name": "seekFortune",
      "outputs": [],
      "stateMutability": "payable",
      "type": "function"
    },
    {
      "inputs": [
        {
          "internalType": "address",
          "name": "to",
          "type": "address"
        }
      ],
      "name": "transferOwnership",
      "outputs": [],
      "stateMutability": "nonpayable",
      "type": "function"
    },
    {
      "inputs": [],
      "name": "withdrawBalance",
      "outputs": [],
      "stateMutability": "payable",
      "type": "function"
    }
  ],
  "bytecode": "0x60a060405260405180610180016040528060405180608001604052806044815260200162002567604491398152602001604051806060016040528060268152602001620024e76026913981526020016040518060600160405280602b815260200162002650602b913981526020016040518060600160405280603b81526020016200267b603b91398152602001604051806060016040528060338152602001620025346033913981526020016040518060600160405280603c815260200162002614603c913981526020016040518060600160405280603c8152602001620025ab603c913981526020016040518060600160405280602781526020016200250d602791398152602001604051806060016040528060258152602001620026b660259139815260200160405180608001604052806041815260200162002704604191398152602001604051806060016040528060298152602001620026db6029913981526020016040518060600160405280602d8152602001620025e7602d9139815250600290600c620001949291906200052f565b507f354d2f95da55398f44b7cff77da56283d9c6c829a4bdf1bbcaf2ad6a4d081f6160001b600855620186a0600960006101000a81548163ffffffff021916908363ffffffff1602179055506001600960046101000a81548161ffff021916908361ffff1602179055506001600960066101000a81548163ffffffff021916908363ffffffff1602179055503480156200022d57600080fd5b5060405162002745380380620027458339818101604052810190620002539190620006e2565b33806000838073ffffffffffffffffffffffffffffffffffffffff1660808173ffffffffffffffffffffffffffffffffffffffff1660601b8152505050600073ffffffffffffffffffffffffffffffffffffffff168273ffffffffffffffffffffffffffffffffffffffff16141562000303576040517f08c379a0000000000000000000000000000000000000000000000000000000008152600401620002fa9062000777565b60405180910390fd5b816000806101000a81548173ffffffffffffffffffffffffffffffffffffffff021916908373ffffffffffffffffffffffffffffffffffffffff160217905550600073ffffffffffffffffffffffffffffffffffffffff168173ffffffffffffffffffffffffffffffffffffffff16146200038a576200038981620003ff60201b60201c565b5b50505080600560006101000a81548173ffffffffffffffffffffffffffffffffffffffff021916908373ffffffffffffffffffffffffffffffffffffffff16021790555081600560146101000a81548167ffffffffffffffff021916908367ffffffffffffffff160217905550505062000904565b3373ffffffffffffffffffffffffffffffffffffffff168173ffffffffffffffffffffffffffffffffffffffff16141562000471576040517f08c379a0000000000000000000000000000000000000000000000000000000008152600401620004689062000799565b60405180910390fd5b80600160006101000a81548173ffffffffffffffffffffffffffffffffffffffff021916908373ffffffffffffffffffffffffffffffffffffffff1602179055508073ffffffffffffffffffffffffffffffffffffffff1660008054906101000a900473ffffffffffffffffffffffffffffffffffffffff1673ffffffffffffffffffffffffffffffffffffffff167fed8889f560326eb138920d842192f0eb3dd22b4f139c87a2c57538e05bae127860405160405180910390a350565b82805482825590600052602060002090810192821562000583579160200282015b82811115620005825782518290805190602001906200057192919062000596565b509160200191906001019062000550565b5b50905062000592919062000627565b5090565b828054620005a49062000814565b90600052602060002090601f016020900481019282620005c8576000855562000614565b82601f10620005e357805160ff191683800117855562000614565b8280016001018555821562000614579182015b8281111562000613578251825591602001919060010190620005f6565b5b5090506200062391906200064f565b5090565b5b808211156200064b57600081816200064191906200066e565b5060010162000628565b5090565b5b808211156200066a57600081600090555060010162000650565b5090565b5080546200067c9062000814565b6000825580601f10620006905750620006b1565b601f016020900490600052602060002090810190620006b091906200064f565b5b50565b600081519050620006c581620008d0565b92915050565b600081519050620006dc81620008ea565b92915050565b60008060408385031215620006fc57620006fb62000879565b5b60006200070c85828601620006cb565b92505060206200071f85828601620006b4565b9150509250929050565b600062000738601883620007bb565b915062000745826200087e565b602082019050919050565b60006200075f601783620007bb565b91506200076c82620008a7565b602082019050919050565b60006020820190508181036000830152620007928162000729565b9050919050565b60006020820190508181036000830152620007b48162000750565b9050919050565b600082825260208201905092915050565b6000620007d982620007e0565b9050919050565b600073ffffffffffffffffffffffffffffffffffffffff82169050919050565b600067ffffffffffffffff82169050919050565b600060028204905060018216806200082d57607f821691505b602082108114156200084457620008436200084a565b5b50919050565b7f4e487b7100000000000000000000000000000000000000000000000000000000600052602260045260246000fd5b600080fd5b7f43616e6e6f7420736574206f776e657220746f207a65726f0000000000000000600082015250565b7f43616e6e6f74207472616e7366657220746f2073656c66000000000000000000600082015250565b620008db81620007cc565b8114620008e757600080fd5b50565b620008f58162000800565b81146200090157600080fd5b50565b60805160601c611bbd6200092a6000396000818161031c01526103700152611bbd6000f3fe6080604052600436106100dd5760003560e01c80638da5cb5b1161007f578063e0c8628911610059578063e0c8628914610270578063f2fde38b1461029b578063f83cc036146102c4578063fc2a88c3146102ef576100dd565b80638da5cb5b146101c9578063a168fa89146101f4578063d8a4676f14610232576100dd565b80636f9fb98a116100bb5780636f9fb98a1461011f57806379ba50971461014a5780637ba9a769146101615780638796ba8c1461018c576100dd565b80631fe543e3146100e25780635fd8c7101461010b5780636b6eb75314610115575b600080fd5b3480156100ee57600080fd5b506101096004803603810190610104919061121e565b61031a565b005b6101136103da565b005b61011d610491565b005b34801561012b57600080fd5b506101346105a1565b60405161014191906116c0565b60405180910390f35b34801561015657600080fd5b5061015f6105a9565b005b34801561016d57600080fd5b5061017661073e565b60405161018391906115be565b60405180910390f35b34801561019857600080fd5b506101b360048036038101906101ae91906111c4565b61084d565b6040516101c091906116c0565b60405180910390f35b3480156101d557600080fd5b506101de610871565b6040516101eb91906114ce565b60405180910390f35b34801561020057600080fd5b5061021b600480360381019061021691906111c4565b61089a565b604051610229929190611542565b60405180910390f35b34801561023e57600080fd5b50610259600480360381019061025491906111c4565b6108d8565b604051610267929190611512565b60405180910390f35b34801561027c57600080fd5b50610285610a03565b60405161029291906116c0565b60405180910390f35b3480156102a757600080fd5b506102c260048036038101906102bd9190611197565b610c6b565b005b3480156102d057600080fd5b506102d9610c7f565b6040516102e691906115be565b60405180910390f35b3480156102fb57600080fd5b50610304610d0d565b60405161031191906116c0565b60405180910390f35b7f000000000000000000000000000000000000000000000000000000000000000073ffffffffffffffffffffffffffffffffffffffff163373ffffffffffffffffffffffffffffffffffffffff16146103cc57337f00000000000000000000000000000000000000000000000000000000000000006040517f1cf993f40000000000000000000000000000000000000000000000000000000081526004016103c39291906114e9565b60405180910390fd5b6103d68282610d13565b5050565b6103e2610e0d565b60003373ffffffffffffffffffffffffffffffffffffffff1647604051610408906114b9565b60006040518083038185875af1925050503d8060008114610445576040519150601f19603f3d011682016040523d82523d6000602084013e61044a565b606091505b505090508061048e576040517f08c379a000000000000000000000000000000000000000000000000000000000815260040161048590611640565b60405180910390fd5b50565b66038d7ea4c680003410156104db576040517f08c379a00000000000000000000000000000000000000000000000000000000081526004016104d290611660565b60405180910390fd5b60006007541415610521576040517f08c379a000000000000000000000000000000000000000000000000000000000815260040161051890611680565b60405180910390fd5b600061052b61073e565b905060003390508073ffffffffffffffffffffffffffffffffffffffff1663728c9c06836040518263ffffffff1660e01b815260040161056b91906115be565b600060405180830381600087803b15801561058557600080fd5b505af1158015610599573d6000803e3d6000fd5b505050505050565b600047905090565b600160009054906101000a900473ffffffffffffffffffffffffffffffffffffffff1673ffffffffffffffffffffffffffffffffffffffff163373ffffffffffffffffffffffffffffffffffffffff1614610639576040517f08c379a000000000000000000000000000000000000000000000000000000000815260040161063090611600565b60405180910390fd5b60008060009054906101000a900473ffffffffffffffffffffffffffffffffffffffff169050336000806101000a81548173ffffffffffffffffffffffffffffffffffffffff021916908373ffffffffffffffffffffffffffffffffffffffff1602179055506000600160006101000a81548173ffffffffffffffffffffffffffffffffffffffff021916908373ffffffffffffffffffffffffffffffffffffffff1602179055503373ffffffffffffffffffffffffffffffffffffffff168173ffffffffffffffffffffffffffffffffffffffff167f8be0079c531659141344cd1fd0a4f28419497f9722a3daafe3b4186f6b6457e060405160405180910390a350565b60606000600280805490506004600060075481526020019081526020016000206001016000815481106107745761077361198e565b5b906000526020600020015461078991906118ff565b8154811061079a5761079961198e565b5b9060005260206000200180546107af9061189c565b80601f01602080910402602001604051908101604052809291908181526020018280546107db9061189c565b80156108285780601f106107fd57610100808354040283529160200191610828565b820191906000526020600020905b81548152906001019060200180831161080b57829003601f168201915b505050505090508060039080519060200190610845929190610fca565b508091505090565b6006818154811061085d57600080fd5b906000526020600020016000915090505481565b60008060009054906101000a900473ffffffffffffffffffffffffffffffffffffffff16905090565b60046020528060005260406000206000915090508060000160009054906101000a900460ff16908060000160019054906101000a900460ff16905082565b600060606004600084815260200190815260200160002060000160019054906101000a900460ff1661093f576040517f08c379a0000000000000000000000000000000000000000000000000000000008152600401610936906115e0565b60405180910390fd5b6000600460008581526020019081526020016000206040518060600160405290816000820160009054906101000a900460ff161515151581526020016000820160019054906101000a900460ff16151515158152602001600182018054806020026020016040519081016040528092919081815260200182805480156109e457602002820191906000526020600020905b8154815260200190600101908083116109d0575b5050505050815250509050806000015181604001519250925050915091565b6000610a0d610e0d565b600560009054906101000a900473ffffffffffffffffffffffffffffffffffffffff1673ffffffffffffffffffffffffffffffffffffffff16635d3b1d30600854600560149054906101000a900467ffffffffffffffff16600960049054906101000a900461ffff16600960009054906101000a900463ffffffff16600960069054906101000a900463ffffffff166040518663ffffffff1660e01b8152600401610abc95949392919061156b565b602060405180830381600087803b158015610ad657600080fd5b505af1158015610aea573d6000803e3d6000fd5b505050506040513d601f19601f82011682018060405250810190610b0e91906111f1565b90506040518060600160405280600015158152602001600115158152602001600067ffffffffffffffff811115610b4857610b476119bd565b5b604051908082528060200260200182016040528015610b765781602001602082028036833780820191505090505b508152506004600083815260200190815260200160002060008201518160000160006101000a81548160ff02191690831515021790555060208201518160000160016101000a81548160ff0219169083151502179055506040820151816001019080519060200190610be9929190611050565b509050506006819080600181540180825580915050600190039060005260206000200160009091909190915055806007819055507fcc58b13ad3eab50626c6a6300b1d139cd6ebb1688a7cced9461c2f7e762665ee81600960069054906101000a900463ffffffff16604051610c6092919061170b565b60405180910390a190565b610c73610e0d565b610c7c81610e9d565b50565b60038054610c8c9061189c565b80601f0160208091040260200160405190810160405280929190818152602001828054610cb89061189c565b8015610d055780601f10610cda57610100808354040283529160200191610d05565b820191906000526020600020905b815481529060010190602001808311610ce857829003601f168201915b505050505081565b60075481565b6004600083815260200190815260200160002060000160019054906101000a900460ff16610d76576040517f08c379a0000000000000000000000000000000000000000000000000000000008152600401610d6d906115e0565b60405180910390fd5b60016004600084815260200190815260200160002060000160006101000a81548160ff02191690831515021790555080600460008481526020019081526020016000206001019080519060200190610dcf929190611050565b507ffe2e2d779dba245964d4e3ef9b994be63856fd568bf7d3ca9e224755cb1bd54d8282604051610e019291906116db565b60405180910390a15050565b60008054906101000a900473ffffffffffffffffffffffffffffffffffffffff1673ffffffffffffffffffffffffffffffffffffffff163373ffffffffffffffffffffffffffffffffffffffff1614610e9b576040517f08c379a0000000000000000000000000000000000000000000000000000000008152600401610e9290611620565b60405180910390fd5b565b3373ffffffffffffffffffffffffffffffffffffffff168173ffffffffffffffffffffffffffffffffffffffff161415610f0c576040517f08c379a0000000000000000000000000000000000000000000000000000000008152600401610f03906116a0565b60405180910390fd5b80600160006101000a81548173ffffffffffffffffffffffffffffffffffffffff021916908373ffffffffffffffffffffffffffffffffffffffff1602179055508073ffffffffffffffffffffffffffffffffffffffff1660008054906101000a900473ffffffffffffffffffffffffffffffffffffffff1673ffffffffffffffffffffffffffffffffffffffff167fed8889f560326eb138920d842192f0eb3dd22b4f139c87a2c57538e05bae127860405160405180910390a350565b828054610fd69061189c565b90600052602060002090601f016020900481019282610ff8576000855561103f565b82601f1061101157805160ff191683800117855561103f565b8280016001018555821561103f579182015b8281111561103e578251825591602001919060010190611023565b5b50905061104c919061109d565b5090565b82805482825590600052602060002090810192821561108c579160200282015b8281111561108b578251825591602001919060010190611070565b5b509050611099919061109d565b5090565b5b808211156110b657600081600090555060010161109e565b5090565b60006110cd6110c884611759565b611734565b905080838252602082019050828560208602820111156110f0576110ef6119f1565b5b60005b858110156111205781611106888261116d565b8452602084019350602083019250506001810190506110f3565b5050509392505050565b60008135905061113981611b59565b92915050565b600082601f830112611154576111536119ec565b5b81356111648482602086016110ba565b91505092915050565b60008135905061117c81611b70565b92915050565b60008151905061119181611b70565b92915050565b6000602082840312156111ad576111ac6119fb565b5b60006111bb8482850161112a565b91505092915050565b6000602082840312156111da576111d96119fb565b5b60006111e88482850161116d565b91505092915050565b600060208284031215611207576112066119fb565b5b600061121584828501611182565b91505092915050565b60008060408385031215611235576112346119fb565b5b60006112438582860161116d565b925050602083013567ffffffffffffffff811115611264576112636119f6565b5b6112708582860161113f565b9150509250929050565b6000611286838361147d565b60208301905092915050565b61129b816117e5565b82525050565b60006112ac82611795565b6112b681856117b8565b93506112c183611785565b8060005b838110156112f25781516112d9888261127a565b97506112e4836117ab565b9250506001810190506112c5565b5085935050505092915050565b611308816117f7565b82525050565b61131781611803565b82525050565b6000611328826117a0565b61133281856117d4565b9350611342818560208601611869565b61134b81611a00565b840191505092915050565b60006113636011836117d4565b915061136e82611a11565b602082019050919050565b60006113866016836117d4565b915061139182611a3a565b602082019050919050565b60006113a96016836117d4565b91506113b482611a63565b602082019050919050565b60006113cc6020836117d4565b91506113d782611a8c565b602082019050919050565b60006113ef602a836117d4565b91506113fa82611ab5565b604082019050919050565b6000611412601c836117d4565b915061141d82611b04565b602082019050919050565b60006114356000836117c9565b915061144082611b2d565b600082019050919050565b60006114586017836117d4565b915061146382611b30565b602082019050919050565b6114778161180d565b82525050565b6114868161183b565b82525050565b6114958161183b565b82525050565b6114a481611845565b82525050565b6114b381611855565b82525050565b60006114c482611428565b9150819050919050565b60006020820190506114e36000830184611292565b92915050565b60006040820190506114fe6000830185611292565b61150b6020830184611292565b9392505050565b600060408201905061152760008301856112ff565b818103602083015261153981846112a1565b90509392505050565b600060408201905061155760008301856112ff565b61156460208301846112ff565b9392505050565b600060a082019050611580600083018861130e565b61158d60208301876114aa565b61159a604083018661146e565b6115a7606083018561149b565b6115b4608083018461149b565b9695505050505050565b600060208201905081810360008301526115d8818461131d565b905092915050565b600060208201905081810360008301526115f981611356565b9050919050565b6000602082019050818103600083015261161981611379565b9050919050565b600060208201905081810360008301526116398161139c565b9050919050565b60006020820190508181036000830152611659816113bf565b9050919050565b60006020820190508181036000830152611679816113e2565b9050919050565b6000602082019050818103600083015261169981611405565b9050919050565b600060208201905081810360008301526116b98161144b565b9050919050565b60006020820190506116d5600083018461148c565b92915050565b60006040820190506116f0600083018561148c565b818103602083015261170281846112a1565b90509392505050565b6000604082019050611720600083018561148c565b61172d602083018461149b565b9392505050565b600061173e61174f565b905061174a82826118ce565b919050565b6000604051905090565b600067ffffffffffffffff821115611774576117736119bd565b5b602082029050602081019050919050565b6000819050602082019050919050565b600081519050919050565b600081519050919050565b6000602082019050919050565b600082825260208201905092915050565b600081905092915050565b600082825260208201905092915050565b60006117f08261181b565b9050919050565b60008115159050919050565b6000819050919050565b600061ffff82169050919050565b600073ffffffffffffffffffffffffffffffffffffffff82169050919050565b6000819050919050565b600063ffffffff82169050919050565b600067ffffffffffffffff82169050919050565b60005b8381101561188757808201518184015260208101905061186c565b83811115611896576000848401525b50505050565b600060028204905060018216806118b457607f821691505b602082108114156118c8576118c761195f565b5b50919050565b6118d782611a00565b810181811067ffffffffffffffff821117156118f6576118f56119bd565b5b80604052505050565b600061190a8261183b565b91506119158361183b565b92508261192557611924611930565b5b828206905092915050565b7f4e487b7100000000000000000000000000000000000000000000000000000000600052601260045260246000fd5b7f4e487b7100000000000000000000000000000000000000000000000000000000600052602260045260246000fd5b7f4e487b7100000000000000000000000000000000000000000000000000000000600052603260045260246000fd5b7f4e487b7100000000000000000000000000000000000000000000000000000000600052604160045260246000fd5b600080fd5b600080fd5b600080fd5b600080fd5b6000601f19601f8301169050919050565b7f72657175657374206e6f7420666f756e64000000000000000000000000000000600082015250565b7f4d7573742062652070726f706f736564206f776e657200000000000000000000600082015250565b7f4f6e6c792063616c6c61626c65206279206f776e657200000000000000000000600082015250565b7f4661696c656420746f2073656e6420457468657220696e207769746864726177600082015250565b7f496e73756666696369656e74207061796d656e7420746f2074686520666f727460008201527f756e652074656c6c657200000000000000000000000000000000000000000000602082015250565b7f4e6f2072657175657374732066756c66696c6c65642061732079657400000000600082015250565b50565b7f43616e6e6f74207472616e7366657220746f2073656c66000000000000000000600082015250565b611b62816117e5565b8114611b6d57600080fd5b50565b611b798161183b565b8114611b8457600080fd5b5056fea26469706673582212204d0e5646d6984398b6660cc44eb5e01640d17a9a5f4401c77d756de54d80bf2a64736f6c634300080700334120666169746866756c20667269656e642069732061207374726f6e6720646566656e73652e4120736f667420766f696365206d617920626520617766756c6c7920706572737561736976652e412068756e6368206973206372656174697669747920747279696e6720746f2074656c6c20796f7520736f6d657468696e672e412062656175746966756c2c20736d6172742c20616e64206c6f76696e6720706572736f6e2077696c6c20626520636f6d696e6720696e746f20796f7572206c6966652e412073686f72742070656e63696c20697320757375616c6c7920626574746572207468616e2061206c6f6e67206d656d6f727920616e79206461792e596f752077696c6c206c6561726e2070617469656e63652066726f6d20536d61727420436f6e7472616374732e416c6c2045564d206572726f72206d65737361676573206172652064657369676e656420746f206275696c6420796f7572206368617261637465722e596f752061726520676f696e6720746f206265206120626c6f636b636861696e20646576656c6f7065722e4120676f6c64656e20656767206f66206f70706f7274756e6974792066616c6c7320696e746f20796f7572206c61702074686973206d6f6e74682e416c6c20796f7572206861726420776f726b2077696c6c20736f6f6e20706179206f66662e4265747465722061736b207477696365207468616e206c6f736520796f757273656c66206f6e63652e4265636175736520796f752064656d616e64206d6f72652066726f6d20796f757273656c662c206f7468657273207265737065637420796f7520646565706c792e",
  "linkReferences": {},
  "deployedLinkReferences": {}
}