{
  "_format": "hh-sol-artifact-1",
  "contractName": "FortuneSeeker",
  "sourceName": "contracts/FortuneSeeker.sol",
  "abi": [
    {
      "inputs": [
        {
          "internalType": "address",
          "name": "_fortuneTeller",
          "type": "address"
        },
        {
          "internalType": "uint256",
          "name": "updateInterval",
          "type": "uint256"
        }
      ],
      "stateMutability": "nonpayable",
      "type": "constructor"
    },
    {
      "anonymous": false,
      "inputs": [
        {
          "indexed": false,
          "internalType": "uint256",
          "name": "balance",
          "type": "uint256"
        }
      ],
      "name": "InsufficientFunds",
      "type": "event"
    },
    {
      "anonymous": false,
      "inputs": [
        {
          "indexed": false,
          "internalType": "uint256",
          "name": "amount",
          "type": "uint256"
        }
      ],
      "name": "ReceivedFunding",
      "type": "event"
    },
    {
      "inputs": [
        {
          "internalType": "bytes",
          "name": "",
          "type": "bytes"
        }
      ],
      "name": "checkUpkeep",
      "outputs": [
        {
          "internalType": "bool",
          "name": "upkeepNeeded",
          "type": "bool"
        },
        {
          "internalType": "bytes",
          "name": "",
          "type": "bytes"
        }
      ],
      "stateMutability": "view",
      "type": "function"
    },
    {
      "inputs": [],
      "name": "fortune",
      "outputs": [
        {
          "internalType": "string",
          "name": "",
          "type": "string"
        }
      ],
      "stateMutability": "view",
      "type": "function"
    },
    {
      "inputs": [],
      "name": "fortuneTeller",
      "outputs": [
        {
          "internalType": "address",
          "name": "",
          "type": "address"
        }
      ],
      "stateMutability": "view",
      "type": "function"
    },
    {
      "inputs": [
        {
          "internalType": "string",
          "name": "_fortune",
          "type": "string"
        }
      ],
      "name": "fulfillFortune",
      "outputs": [],
      "stateMutability": "nonpayable",
      "type": "function"
    },
    {
      "inputs": [],
      "name": "getContractBalance",
      "outputs": [
        {
          "internalType": "uint256",
          "name": "",
          "type": "uint256"
        }
      ],
      "stateMutability": "view",
      "type": "function"
    },
    {
      "inputs": [],
      "name": "interval",
      "outputs": [
        {
          "internalType": "uint256",
          "name": "",
          "type": "uint256"
        }
      ],
      "stateMutability": "view",
      "type": "function"
    },
    {
      "inputs": [],
      "name": "lastTimeStamp",
      "outputs": [
        {
          "internalType": "uint256",
          "name": "",
          "type": "uint256"
        }
      ],
      "stateMutability": "view",
      "type": "function"
    },
    {
      "inputs": [],
      "name": "owner",
      "outputs": [
        {
          "internalType": "address",
          "name": "",
          "type": "address"
        }
      ],
      "stateMutability": "view",
      "type": "function"
    },
    {
      "inputs": [
        {
          "internalType": "bytes",
          "name": "",
          "type": "bytes"
        }
      ],
      "name": "performUpkeep",
      "outputs": [],
      "stateMutability": "nonpayable",
      "type": "function"
    },
    {
      "inputs": [],
      "name": "seekFortune",
      "outputs": [],
      "stateMutability": "nonpayable",
      "type": "function"
    },
    {
      "inputs": [],
      "name": "withdrawBalance",
      "outputs": [],
      "stateMutability": "payable",
      "type": "function"
    },
    {
      "stateMutability": "payable",
      "type": "receive"
    }
  ],
  "bytecode": "0x60a06040523480156200001157600080fd5b50604051620010d8380380620010d88339818101604052810190620000379190620000fd565b81600160006101000a81548173ffffffffffffffffffffffffffffffffffffffff021916908373ffffffffffffffffffffffffffffffffffffffff160217905550426003819055508060808181525050336000806101000a81548173ffffffffffffffffffffffffffffffffffffffff021916908373ffffffffffffffffffffffffffffffffffffffff1602179055505050620001bb565b600081519050620000e08162000187565b92915050565b600081519050620000f781620001a1565b92915050565b6000806040838503121562000117576200011662000182565b5b60006200012785828601620000cf565b92505060206200013a85828601620000e6565b9150509250929050565b6000620001518262000158565b9050919050565b600073ffffffffffffffffffffffffffffffffffffffff82169050919050565b6000819050919050565b600080fd5b620001928162000144565b81146200019e57600080fd5b50565b620001ac8162000178565b8114620001b857600080fd5b50565b608051610ef3620001e56000396000818161032e0152818161062b01526106c80152610ef36000f3fe6080604052600436106100a05760003560e01c80636e04ff0d116100645780636e04ff0d146101835780636f9fb98a146101c1578063728c9c06146101ec5780638da5cb5b14610215578063947a36fb14610240578063e79150ca1461026b576100de565b8063177de89c146100e35780633f3b3b271461010e5780634585e33b146101395780635fd8c710146101625780636b6eb7531461016c576100de565b366100de577fcdc77e761b1d4cd82eeada7665c48ca477ac1c6bc761f8d5a191a6a37f8869db346040516100d49190610b5f565b60405180910390a1005b600080fd5b3480156100ef57600080fd5b506100f8610296565b6040516101059190610abd565b60405180910390f35b34801561011a57600080fd5b50610123610324565b6040516101309190610b5f565b60405180910390f35b34801561014557600080fd5b50610160600480360381019061015b9190610879565b61032a565b005b61016a6103d2565b005b34801561017857600080fd5b5061018161050f565b005b34801561018f57600080fd5b506101aa60048036038101906101a59190610879565b610623565b6040516101b8929190610a8d565b60405180910390f35b3480156101cd57600080fd5b506101d6610680565b6040516101e39190610b5f565b60405180910390f35b3480156101f857600080fd5b50610213600480360381019061020e91906108c6565b610688565b005b34801561022157600080fd5b5061022a6106a2565b6040516102379190610a72565b60405180910390f35b34801561024c57600080fd5b506102556106c6565b6040516102629190610b5f565b60405180910390f35b34801561027757600080fd5b506102806106ea565b60405161028d9190610a72565b60405180910390f35b600280546102a390610cd1565b80601f01602080910402602001604051908101604052809291908181526020018280546102cf90610cd1565b801561031c5780601f106102f15761010080835404028352916020019161031c565b820191906000526020600020905b8154815290600101906020018083116102ff57829003601f168201915b505050505081565b60035481565b60007f00000000000000000000000000000000000000000000000000000000000000006003544261035b9190610c13565b1190506000670de0b6b3a76400004710159050600082801561037a5750815b9050806103bc576040517f08c379a00000000000000000000000000000000000000000000000000000000081526004016103b390610aff565b60405180910390fd5b426003819055506103cb61050f565b5050505050565b3373ffffffffffffffffffffffffffffffffffffffff1660008054906101000a900473ffffffffffffffffffffffffffffffffffffffff1673ffffffffffffffffffffffffffffffffffffffff1614610460576040517f08c379a000000000000000000000000000000000000000000000000000000000815260040161045790610adf565b60405180910390fd5b60003373ffffffffffffffffffffffffffffffffffffffff164760405161048690610a5d565b60006040518083038185875af1925050503d80600081146104c3576040519150601f19603f3d011682016040523d82523d6000602084013e6104c8565b606091505b505090508061050c576040517f08c379a000000000000000000000000000000000000000000000000000000000815260040161050390610b1f565b60405180910390fd5b50565b670de0b6b3a7640000471015610591577fcb78cce24fdc0644864ba6fa04f6212b7535b7b222d742f247c1c60c11b431224760405161054e9190610b5f565b60405180910390a16040517f08c379a000000000000000000000000000000000000000000000000000000000815260040161058890610b3f565b60405180910390fd5b6000600160009054906101000a900473ffffffffffffffffffffffffffffffffffffffff1690508073ffffffffffffffffffffffffffffffffffffffff16636b6eb75366038d7ea4c680006040518263ffffffff1660e01b81526004016000604051808303818588803b15801561060757600080fd5b505af115801561061b573d6000803e3d6000fd5b505050505050565b6000606060007f0000000000000000000000000000000000000000000000000000000000000000600354426106589190610c13565b1190506000670de0b6b3a764000047101590508180156106755750805b935050509250929050565b600047905090565b806002908051906020019061069e929190610710565b5050565b60008054906101000a900473ffffffffffffffffffffffffffffffffffffffff1681565b7f000000000000000000000000000000000000000000000000000000000000000081565b600160009054906101000a900473ffffffffffffffffffffffffffffffffffffffff1681565b82805461071c90610cd1565b90600052602060002090601f01602090048101928261073e5760008555610785565b82601f1061075757805160ff1916838001178555610785565b82800160010185558215610785579182015b82811115610784578251825591602001919060010190610769565b5b5090506107929190610796565b5090565b5b808211156107af576000816000905550600101610797565b5090565b60006107c66107c184610b9f565b610b7a565b9050828152602081018484840111156107e2576107e1610dd0565b5b6107ed848285610c8f565b509392505050565b60008083601f84011261080b5761080a610dc6565b5b8235905067ffffffffffffffff81111561082857610827610dc1565b5b60208301915083600182028301111561084457610843610dcb565b5b9250929050565b600082601f8301126108605761085f610dc6565b5b81356108708482602086016107b3565b91505092915050565b600080602083850312156108905761088f610dda565b5b600083013567ffffffffffffffff8111156108ae576108ad610dd5565b5b6108ba858286016107f5565b92509250509250929050565b6000602082840312156108dc576108db610dda565b5b600082013567ffffffffffffffff8111156108fa576108f9610dd5565b5b6109068482850161084b565b91505092915050565b61091881610c47565b82525050565b61092781610c59565b82525050565b600061093882610bd0565b6109428185610be6565b9350610952818560208601610c9e565b61095b81610ddf565b840191505092915050565b600061097182610bdb565b61097b8185610c02565b935061098b818560208601610c9e565b61099481610ddf565b840191505092915050565b60006109ac601083610c02565b91506109b782610df0565b602082019050919050565b60006109cf601983610c02565b91506109da82610e19565b602082019050919050565b60006109f2602083610c02565b91506109fd82610e42565b602082019050919050565b6000610a15602883610c02565b9150610a2082610e6b565b604082019050919050565b6000610a38600083610bf7565b9150610a4382610eba565b600082019050919050565b610a5781610c85565b82525050565b6000610a6882610a2b565b9150819050919050565b6000602082019050610a87600083018461090f565b92915050565b6000604082019050610aa2600083018561091e565b8181036020830152610ab4818461092d565b90509392505050565b60006020820190508181036000830152610ad78184610966565b905092915050565b60006020820190508181036000830152610af88161099f565b9050919050565b60006020820190508181036000830152610b18816109c2565b9050919050565b60006020820190508181036000830152610b38816109e5565b9050919050565b60006020820190508181036000830152610b5881610a08565b9050919050565b6000602082019050610b746000830184610a4e565b92915050565b6000610b84610b95565b9050610b908282610d03565b919050565b6000604051905090565b600067ffffffffffffffff821115610bba57610bb9610d92565b5b610bc382610ddf565b9050602081019050919050565b600081519050919050565b600081519050919050565b600082825260208201905092915050565b600081905092915050565b600082825260208201905092915050565b6000610c1e82610c85565b9150610c2983610c85565b925082821015610c3c57610c3b610d34565b5b828203905092915050565b6000610c5282610c65565b9050919050565b60008115159050919050565b600073ffffffffffffffffffffffffffffffffffffffff82169050919050565b6000819050919050565b82818337600083830152505050565b60005b83811015610cbc578082015181840152602081019050610ca1565b83811115610ccb576000848401525b50505050565b60006002820490506001821680610ce957607f821691505b60208210811415610cfd57610cfc610d63565b5b50919050565b610d0c82610ddf565b810181811067ffffffffffffffff82111715610d2b57610d2a610d92565b5b80604052505050565b7f4e487b7100000000000000000000000000000000000000000000000000000000600052601160045260246000fd5b7f4e487b7100000000000000000000000000000000000000000000000000000000600052602260045260246000fd5b7f4e487b7100000000000000000000000000000000000000000000000000000000600052604160045260246000fd5b600080fd5b600080fd5b600080fd5b600080fd5b600080fd5b600080fd5b6000601f19601f8301169050919050565b7f43616c6c6572206e6f74206f776e657200000000000000000000000000000000600082015250565b7f55706b65657020636f6e646974696f6e73206e6f74206d657400000000000000600082015250565b7f4661696c656420746f2073656e6420457468657220696e207769746864726177600082015250565b7f4e6f7420656e6f7567682062616c616e636520746f2063616c6c20466f72747560008201527f6e6554656c6c6572000000000000000000000000000000000000000000000000602082015250565b5056fea2646970667358221220483762e78c4515e6029a79ee5b3a74f6864a2d50bb4cdeae32b4126876a3ed0e64736f6c63430008070033",
  "linkReferences": {},
  "deployedLinkReferences": {}
}